:100000000C9482010C94B3010C94B3010C94B301D1
:100010000C94B3010C94B3010C94B3010C94B30190
:100020000C94B3010C94B3010C94B3010C94B30180
:100030000C94B3010C94B3010C94B3010C94B30170
:100040000C94B3010C9444080C94B3010C94B301C8
:100050000C94B3010C94B3010C94B3010C94110CE7
:100060000C94B3010C94C40F0C94FA0F0C94B301CC
:100070000C94B3010C94B3010C94B3010C94B30130
:100080000C9472080C94B3010C94B3010C94B3015A
:100090000C94B3010C94B3010C94B3010C94B30110
:1000A0000C94B3010C94B3010C94A0080C94B3010C
:1000B0000C94B3010C94B3010C94B3010C94CE08CE
:1000C0000C94B3010C94B3010C94B3010C94B301E0
:1000D0000C94B3010C94B3010C94B3010C94B301D0
:1000E0000C94B301780A7B0A6A0A6E0A740AB20A8F
:1000F0007F0A830A890A8D0A910A970A9B0A9F0A36
:10010000B20AA50AA90AAD0A710B760B7B0B850B07
:100110008F0B080C990BA10BA90BB30BBD0BC70BD5
:10012000D60BE00B080CEA0BF40BFE0B0C94A90B9E
:100130000C94A90A0C94B20A0C942A0D0C94A10BED
:100140000C946E0A0C94850B0C949F0A0C94740A00
:100150000C94E00B0C94EA0B0C947F0A0C94760B35
:100160000C94B30B0C948F0B0C94990B0C94710B97
:100170000C947B0B0C94A50E0C942E100C94470E33
:100180000C94160E0C94A50A0C94FE0B0C94890A80
:100190000C94D60B0C949B0A0C94780A0C94080CC3
:1001A0000C94AD0A0C94380E0C9424100C94910A03
:1001B0000C94240E0C94F40B0C94BD0B0C94C70EF1
:1001C0000C9434070C946A0A0C94830A0C94970AD2
:1001D0000C948D0A0C94C70B0C940A0E0C947B0A99
:1001E00000000A0B02090C0D0E08070304010000B1
:1001F00000000000000000000000000000000000FF
:1002000000000000000000000000000012111000BB
:1002100000000000000000000000000000000000DE
:1002200000000000000001021020200808102040FB
:1002300010204080020102010804020101020408AA
:100240001020408080402010080402018004020138
:100250008040201008040201080402010102040881
:10026000102040800102040810204080050505058B
:10027000070508080808020202020A0A080804041E
:10028000040401010101010101010303030303034C
:100290000303040707070C0C0C0C0C0C0C0C0202DB
:1002A000020206060606060606060B0B0B0B0B0BD8
:1002B0000B0B000020002300260029002C002F003B
:1002C00032000001000003010601090100002200C4
:1002D000250028002B002E00310034000201000010
:1002E000050108010B0100002100240027002A005D
:1002F0002D003000330001010000040107010A0154
:1003000034072E1011241FBECFEFD1E2DEBFCDBFC8
:1003100000E00CBF12E0A0E0B2E0EAEEF8E200E09C
:100320000BBF02C007900D92AC39B107D9F724E09A
:10033000ACE9B2E001C01D92A431B207E1F711E0CF
:10034000C2E8D1E000E006C021970109802FFE013C
:100350000E94D411C038D10780E00807A9F70E9495
:10036000B50F0C9473140C940000FC0138E0220FBC
:10037000A681B7819C918485982309F02F5FA48181
:10038000B5819C91892B8C939485A281B3818C91AA
:1003900067FF02C0982B02C0909598239C93A0857C
:1003A000B1859C918585892B8C93A085B1859C9185
:1003B0008585809589238C93A481B5819C918485C2
:1003C000809589238C93660F315089F6822F08958A
:1003D000AF92BF92CF92DF92EF92FF920F931F9353
:1003E000CF93DF93EC016B01F42E122FB32E8F8588
:1003F00060E08823A1F18B850E94EF0A84EF91E0F1
:100400000E94BC0CF8946F2DCE010E94B501A12E64
:10041000E12EFB2C8E2D8A19801770F4F701608174
:10042000CE010E94B501C114D10411F4F7018083FB
:10043000FFEFEF1AFF0AEECF789461E08B850E9400
:10044000EF0A84EF91E0DF91CF911F910F91FF9020
:10045000EF90DF90CF90BF90AF900C94BC0C8B8549
:100460000E94EF0AFEBC00000DB407FEFDCF8EB562
:10047000912FE12FFB2D8E2F891B801768F480812F
:100480008EBD00000DB407FEFDCF8EB5C114D104A2
:1004900009F480833196EFCF61E08B85DF91CF91B6
:1004A0001F910F91FF90EF90DF90CF90BF90AF9092
:1004B0000C94EF0A0F936F71022F9A01462F60E0A0
:1004C00070E00E94E8010F910895CF93DF931F928F
:1004D000CDB7DEB721E0AE014F5F5F4F0E945A02F9
:1004E00089810F90DF91CF91089567E00E946502A6
:1004F0008E70869508950F936F716062022F9A0136
:10050000462F61E070E00E94E8010F910895CF93BB
:10051000DF931F92CDB7DEB7498321E0AE014F5F75
:100520005F4F0E947B020F90DF91CF910895CF9291
:10053000DF92EF92FF920F93CF93DF931F92CDB78D
:10054000DEB77C016B0101E09E012F5F3F4F40E66B
:1005500060E070E00E94E8010981960141E660E0F8
:1005600070E0C7010E94E80167E0C7010E946502D0
:1005700086FF06C0482F406467E0C7010E948702DB
:100580000F90DF91CF910F91FF90EF90DF90CF9080
:100590000895EF92FF920F93CF93DF931F92CDB701
:1005A000DEB77C0101E09E012F5F3F4F40E660E037
:1005B00070E00E94E80189818132A0F000E020E033
:1005C00030E042EE61E070E0C7010E94E80167E0C0
:1005D000C7010E946502482F406767E0C7010E947B
:1005E000870280E00F90DF91CF910F91FF90EF9005
:1005F00008950F931F93CF93DF93EC019A858B851A
:1006000098131DC061111BC00E945B0C0E891F89CD
:10061000288D398DAB01BC01401B510B620B730B54
:100620008C899D89A0E0B0E0481759076A077B07CD
:1006300088F10E945B0C6E8B7F8B888F998F60E0B6
:10064000CE010E946502182F482F4360841721F0C5
:1006500060E0CE010E9487028A859B85891741F060
:100660000E941F0B892B21F461E08A850E94EF0A0A
:1006700011FD04C086E192E10E94BC0CCE010E94F3
:100680007502813039F4CE01DF91CF911F910F9126
:100690000C94C90280E0DF91CF911F910F910895D2
:1006A000DF92EF92FF920F931F93CF93DF9300D0CF
:1006B00000D0CDB7DEB77C01D62E8A0181E0F701EC
:1006C000868764E670E080E090E02E830E94800CD4
:1006D0002E81422F2E3708F04DE765E0C7010E94BA
:1006E00087020115110591F44EE066E0C7010E94F2
:1006F00087024FE164E0C7010E94870288E592E02B
:10070000F701958B848B8AEF90E026C001301105AC
:1007100091F446E066E0C7010E9487024FE164E081
:10072000C7010E94870280EB94E0F701958B848BD0
:1007300088EE93E011C046E266E0C7010E9487029E
:100740004FE564E0C7010E94870280E49FE1F70162
:10075000958B848B8CED95E0938B828BAE014F5FF4
:100760005F4F85E0FA0111928A95E9F781E089836C
:1007700082E08A8383E08B8384E08C83DD8225E0C2
:100780006BE0C7010E947B0243E06CE1C7010E945D
:10079000870247E06DE1C7010E94870200E020E088
:1007A00030E042EE61E070E0C7010E94E80120E025
:1007B00030E041EE61E070E0C7010E94E80167E0CF
:1007C000C7010E946502482F406767E0C7010E9489
:1007D00087024BE060E0C7010E94870261E0F701F9
:1007E00082850E94EF0A86E192E10E94BC0C60E0E3
:1007F000C7010E94650291E08B3009F090E0892FDB
:1008000026960FB6F894DEBF0FBECDBFDF91CF9115
:100810001F910F91FF90EF90DF900895CF92DF929C
:10082000EF92FF920F931F93CF93DF931F92CDB759
:10083000DEB76C01F62E842FF601178642872387D8
:1008400061E00E94B30A61E0F60183850E94B30A69
:1008500061E0F60183850E94EF0A85E30E941F0B89
:100860009CB59C7F9CBD9DB591609DBD89830E9478
:100870004707F60193858981953321F0682F85E339
:100880000E94EF0A2E2DA8016F2DC6010F90DF9157
:10089000CF911F910F91FF90EF90DF90CF900C942C
:1008A0005003EF920F931F9326E040E052EC61E07B
:1008B00070E083E793E00E940E0F6BE070E081ED43
:1008C00092E00E94C60969E070E08EEC92E00E941E
:1008D000C6096CE070E08BEC92E00E94C6098BE4E4
:1008E000E82E01E010E028E047E060E081EB92E0D4
:1008F0000E940E0494E6E92E00E010E028E047E0B4
:1009000060E081EB92E00E940E04811107C06AE072
:1009100072E083E793E00E94900DFFCF6AE570E0FC
:1009200081ED92E00E94010A6CE370E08EEC92E0AF
:100930000E94010A6AE570E08BEC92E00E94010AD5
:1009400061E085E00E94B30A61E086E00E94B30A9C
:1009500061E08FE10E94B30A61E08EE10E94B30A78
:1009600061E08DE10E94B30A61E08CE11F910F917B
:10097000EF900C94B30ACF92DF92EF92FF926B014B
:100980007C0185E00E94480BB60186E00E94480B7E
:1009900061E08FE10E94EF0A60E08EE10E94EF0AC1
:1009A00061E08DE10E94EF0A60E08CE1FF90EF9042
:1009B000DF90CF900C94EF0ACF92DF92EF92FF92EC
:1009C0006B017C0185E00E94480BB60186E00E9425
:1009D000480B60E08FE10E94EF0A61E08EE10E9427
:1009E000EF0A60E08DE10E94EF0A61E08CE1FF9088
:1009F000EF90DF90CF900C94EF0A60E08FE10E94BF
:100A0000EF0A60E08EE10E94EF0A60E08DE10E9453
:100A1000EF0A60E08CE10C94EF0A4F925F926F92C4
:100A20007F92AF92BF92CF92DF92EF92FF920F939D
:100A30001F932B013C011F921F921F928FEF8F93E8
:100A4000A12CB12C6501EE24EA9413E0F12E00E014
:100A500010E020E030E0A901C301B2010E94730F51
:100A60006B017C010F900F900F900F9082EC481655
:100A700081E058066104710480F4C701B6011F913A
:100A80000F91FF90EF90DF90CF90BF90AF907F904D
:100A90006F905F904F900C94BB0482EC91E0A0E0CB
:100AA000B0E0BC01CD016C197D098E099F090E943F
:100AB000DC0487E2481682E0580661047104E8F21B
:100AC0001F910F91FF90EF90DF90CF90BF90AF906C
:100AD0007F906F905F904F900C94FD044F925F92C7
:100AE0006F927F92AF92BF92CF92DF92EF92FF927E
:100AF0000F931F93CF93DF93CDB7DEB728970FB631
:100B0000F894DEBF0FBECDBF29013A01ED82FE820F
:100B10000F8318871F921F921F9224EB2F93A12CF3
:100B2000B12C650112E5E12E13E0F12E00E010E09A
:100B300026E930E040E050E00E94730F69837A8339
:100B40008B839C8384E893E0A0E0B0E0BC01CD01FE
:100B500064197509860997091F921F921F9224E64E
:100B60002F9314E8E12E13E0F12E00E010E020E0D6
:100B700030E0A9010E94730F6B017C0186E593E0D0
:100B8000A0E0B0E084199509A609B7090FB6F8945A
:100B9000DEBF0FBECDBF0997A105B10528F0B60194
:100BA0008EEC92E00E94010A83E393E0A0E0B0E0C3
:100BB00084199509A609B7094397A105B10530F035
:100BC00069817A8181ED92E00E94010A2AE030E099
:100BD000B701A60183E793E00E94EB0D68E272E0A3
:100BE00083E793E00E94780D2AE030E049815A8142
:100BF0006B817C8183E793E00E94EB0D68E272E0F9
:100C000083E793E00E94780D2AE030E04D815E8119
:100C10006F81788583E793E028960FB6F894DEBF5E
:100C20000FBECDBFDF91CF911F910F91FF90EF903D
:100C3000DF90CF90BF90AF907F906F905F904F907C
:100C40000C94F80D9F92AF92BF92CF92DF92EF92E9
:100C5000FF920F931F93CF93DF9300D000D0CDB7B7
:100C6000DEB745EA942E60E081EB92E00E94F90243
:100C7000882309F4E1C06CE972E081EB92E00E9404
:100C800097026DE272E0CE0101960E94C910609158
:100C90009C02CE0101960E941B116BE372E0CE0113
:100CA00001960E940C1140919D0250919E0260910C
:100CB0009F027091A002CE0101960E94461164E34A
:100CC00072E0CE0101960E940C114091A102509158
:100CD000A2026091A3027091A402CE0101960E942B
:100CE00046116EE372E0CE0101960E940C11409114
:100CF000A9025091AA026091AB027091AC02CE01A0
:100D000001960E94461166E472E0CE0101960E94AF
:100D10000C114091A5025091A6026091A70270911A
:100D2000A802CE0101960E9446116EE472E0CE0147
:100D300001960E940C116091AD02CE0101960E94B5
:100D40001B1166E572E0CE0101960E940C116091C4
:100D5000AE02CE0101960E941B116FE572E0CE013A
:100D600001960E940C116091AF02CE0101960E9483
:100D70001B1168E672E0CE0101960E940C11609191
:100D8000B002CE0101960E941B1161E772E0CE0114
:100D900001960E940C1160919D0270919E028091BB
:100DA0009F029091A0021F921F921F929F922FE08C
:100DB000A22EB12CC12CD12CEE24EA9413E0F12EFA
:100DC00000E010E02AE430E040E050E00E94730FC1
:100DD0006B017C018BEC92E00E94010A6091A10200
:100DE0007091A2028091A3029091A4020E940D052D
:100DF0002091A9023091AA024091AB025091AC021D
:100E00006091A5027091A6028091A7029091A8021C
:100E1000870176010E946E05BE016F5F7F4F83E7F9
:100E200093E00E947E0DCE0101960E945B100F9010
:100E30000F900F900F9017CF6AE070E080E090E085
:100E40000E94800C26960FB6F894DEBF0FBECDBF71
:100E5000DF91CF911F910F91FF90EF90DF90CF9096
:100E6000BF90AF909F90089581ED92E00E94FC08A2
:100E70008EEC92E00E94FC088BEC92E00E94FC0851
:100E80008FEF9FEF9093C2028093C1020895CF939A
:100E9000CFB7F8948091D402811127C0E1EAF2E043
:100EA0008491EBE5F2E09491E82FF0E0EE0FFF1F64
:100EB000EA51FD4FA591B491EC91E92321F461E051
:100EC00085E30E94EF0A61E085E30E94B30A8CB5D6
:100ED00080618CBD8CB580648CBD61E084E30E9430
:100EE000B30A61E083E30E94B30A8091D4028F5F6A
:100EF0008093D402CFBFCF910895CF92DF92EF922B
:100F0000FF920F931F93CF93DF936C018B017A01B4
:100F1000EC01CA52DD4F888187FF04C0FB011182BA
:100F2000108224C08CE08C9D90018D9D300D112489
:100F30008881A901480F511D87FD5A958091D502DE
:100F400090E04817590794F48881A901480F511D72
:100F500087FD5A95CA01FA01EE0FFF1F8E0F9F1FE2
:100F6000FC01E652FD4F808186FD19C088818F5FAC
:100F700088838CE08C9D90018D9D300D112488819B
:100F8000A901480F511D87FD5A958091D50290E027
:100F900048175907BCF488818C3044F113C088810C
:100FA000280F311D87FD3A95F901EE0FFF1F2E0F17
:100FB0003F1FF901E652FD4F808160E08F730E9470
:100FC000EF0AD4CFF80180819181049680349C4946
:100FD00018F480E49CE904C0F801808191810496B2
:100FE000F701918380838FEF888345C0F8014081AA
:100FF00051818881B901680F711D87FD7A95CB01F8
:10100000FB01EE0FFF1F8E0F9F1FFC01E652FD4FED
:1010100081819281840F951FF7019183808388815C
:10102000A901480F511D87FD5A95CA01FA01EE0F1B
:10103000FF1F8E0F9F1FFC01E652FD4F808186FF30
:101040001AC08881280F311D87FD3A95F901EE0FEE
:10105000FF1F2E0F3F1FF901E652FD4F808161E017
:101060008F73DF91CF911F910F91FF90EF90DF90E1
:10107000CF900C94EF0ADF91CF911F910F91FF90C9
:10108000EF90DF90CF9008951F920F920FB60F92BE
:1010900011240BB60F922F933F934F935F936F934F
:1010A0007F938F939F93AF93BF93EF93FF9348E802
:1010B00050E064E870E081E090E00E947D07FF91DD
:1010C000EF91BF91AF919F918F917F916F915F91C0
:1010D0004F913F912F910F900BBE0F900FBE0F902D
:1010E0001F9018951F920F920FB60F9211240BB6F6
:1010F0000F922F933F934F935F936F937F938F93B1
:101100009F93AF93BF93EF93FF9348E950E064E957
:1011100070E082E090E00E947D07FF91EF91BF9127
:10112000AF919F918F917F916F915F914F913F917F
:101130002F910F900BBE0F900FBE0F901F90189520
:101140001F920F920FB60F9211240BB60F922F938E
:101150003F934F935F936F937F938F939F93AF933F
:10116000BF93EF93FF9348EA50E064EA70E083E0B6
:1011700090E00E947D07FF91EF91BF91AF919F9109
:101180008F917F916F915F914F913F912F910F9030
:101190000BBE0F900FBE0F901F9018951F920F92CD
:1011A0000FB60F9211240BB60F922F933F934F93CC
:1011B0005F936F937F938F939F93AF93BF93EF93BF
:1011C000FF9348E251E064E271E080E090E00E9429
:1011D0007D07FF91EF91BF91AF919F918F917F918B
:1011E0006F915F914F913F912F910F900BBE0F9098
:1011F0000FBE0F901F901895FC019091D50290336F
:10120000A0F481E0890F8093D5029083892F90E02C
:10121000FC01EE0FFF1F8E0F9F1FFC01E652FD4FDA
:1012200088EB9BE09283818308958FEF80830895FC
:10123000DF92EF92FF920F931F93CF93DF93EC0116
:10124000D62E7A0189018881803308F06AC061E076
:101250008D2D0E94B30A8881E82FF0E09F01220FB4
:10126000331FE20FF31FE652FD4F9D2D9F73208128
:10127000207CD22ED92AD08260E272E0AB014E19D6
:101280005F0957FF02C04D5F5F4F559547955595D4
:101290004795498340E659E09A01201B310B37FFFF
:1012A00002C02D5F3F4F35952795359527952A83A9
:1012B0006CE00E9487119CE0899FB001112440E0FE
:1012C00050E09A01260F371FF901EE0FFF1F2E0F76
:1012D0003F1FF901E652FD4F908196FD16C04F5F0A
:1012E0005F4F4C30510569F7813021F51092800035
:1012F00082E0809381001092850010928400B19A60
:1013000080916F00826080936F00E881F0E0CF01F0
:10131000880F991FE80FF91FE652FD4F8081806406
:1013200080838881DF91CF911F910F91FF90EF9083
:10133000DF900895823061F41092900080939100C4
:10134000109295001092940088BB80937100DDCFBD
:10135000833069F41092A00082E08093A100109283
:10136000A5001092A40089BB80937200CECF81119A
:10137000CCCF1092200182E08093210110922501B0
:10138000109224018ABB80937300BFCF20E639E01E
:1013900040E252E00C941809FC019081903380F5F2
:1013A000818128E830E0281B310987FD3395220F21
:1013B000331F220F331F621773077CF0828128E5E9
:1013C00032E0281B310987FD3395220F331F220F8E
:1013D000331F621773070CF49B0122503109220F4F
:1013E000331F4FB7F894892F90E0FC01EE0FFF1FD9
:1013F0008E0F9F1FFC01E652FD4F328321834FBFAA
:101400000895AF92BF92CF92DF92EF92FF920F9327
:101410001F93CF93DF93EC01603282E078070CF0EA
:101420003FC077FD06C0653B71052CF064EB70E0B2
:1014300002C060E070E0898128E830E05901A81A14
:10144000B10887FDB394AA0CBB1CAA0CBB1C0B2CC7
:10145000000CCC08DD08072E000C880B990B2A81A4
:1014600008E512E0021B110927FD1395000F111F5B
:10147000000F111F012E000C220B330B3F932F93F3
:101480001F930F9314EBE12EF12C00E010E020E00D
:1014900030E0A9010E94730F0F900F900F900F90F2
:1014A000CE01DF91CF911F910F91FF90EF90DF90D0
:1014B000CF90BF90AF900C94CC0990E0FC01319795
:1014C000E231F10508F04EC08827EE58FF4F8F4FEC
:1014D0000C94D411809180008F7703C0809180009C
:1014E0008F7D80938000089580918000877FF9CF61
:1014F00084B58F7702C084B58F7D84BD08958091B7
:10150000B0008F7703C08091B0008F7D8093B000D2
:101510000895809190008F7707C0809190008F7D13
:1015200003C080919000877F809390000895809100
:10153000A0008F7707C08091A0008F7D03C08091AD
:10154000A000877F8093A0000895809120018F776D
:1015500007C0809120018F7D03C080912001877F8B
:10156000809320010895CF93DF9390E0FC01EA5D22
:10157000FD4F2491FC01E459FD4F8491882361F1D2
:1015800090E0880F991FFC01EA51FD4FC591D4915D
:10159000FC01E453FD4FA591B491611109C09FB7BF
:1015A000F8948881209582238883EC912E230BC0A8
:1015B000623061F49FB7F8943881822F809583233D
:1015C0008883EC912E2B2C939FBF06C08FB7F89485
:1015D000E8812E2B28838FBFDF91CF9108951F9331
:1015E000CF93DF93282F30E0F901E052FE4F849132
:1015F000F901EA5DFD4FD491F901E459FD4FC49121
:10160000CC23C9F0162F81110E945D0AEC2FF0E067
:10161000EE0FFF1FE453FD4FA591B4918FB7F894DF
:10162000111105C09C91ED2FE095E92302C0EC91CA
:10163000ED2BEC938FBFDF91CF911F910895CF9346
:10164000DF93282F30E0F901E052FE4F8491F90139
:10165000EA5DFD4FD491F901E459FD4FC491CC23CB
:1016600091F081110E945D0AEC2FF0E0EE0FFF1F58
:10167000EE54FD4FA591B491EC91ED2381E090E003
:1016800021F480E002C080E090E0DF91CF910895E6
:101690001F93CF93DF93182FEB0161E00E94B30AF1
:1016A000209711F460E004C0CF3FD10539F461E028
:1016B000812FDF91CF911F910C94EF0AE12FF0E081
:1016C000E052FE4FE4914E2F50E0FA013197E231A3
:1016D000F10508F09DC08827EC57FF4F8F4F0C9401
:1016E000D41184B5806884BDC7BD97C084B58062BD
:1016F00084BDC8BD92C080918000806880938000C6
:10170000D0938900C093880088C080918000806257
:1017100080938000D0938B00C0938A007EC080911C
:101720008000886080938000D0938D00C0938C00EF
:1017300074C08091B00080688093B000C093B30003
:101740006CC08091B00080628093B000C093B40000
:1017500064C080919000806880939000D09399003D
:10176000C09398005AC0809190008062809390004E
:10177000D0939B00C0939A0050C0809190008860E5
:1017800080939000D0939D00C0939C0046C08091B0
:10179000A00080688093A0008091A0008F7B809340
:1017A000A000D093A900C093A80037C08091A000EA
:1017B00080628093A000D093AB00C093AA002DC09C
:1017C0008091A00088608093A000D093AD00C0936A
:1017D000AC0023C080912001806880932001D093C9
:1017E0002901C093280119C0809120018062809353
:1017F0002001D0932B01C0932A010FC080912001BA
:10180000886080932001D0932D01C0932C0105C0E6
:10181000C038D1050CF04BCF45CFDF91CF911F9150
:1018200008951F920F920FB60F9211242F933F939A
:101830008F939F93AF93BF9380916B0390916C03B1
:10184000A0916D03B0916E0330916A0323E0230FE2
:101850002D3720F40196A11DB11D05C026E8230FE8
:101860000296A11DB11D20936A0380936B03909390
:101870006C03A0936D03B0936E0380916F039091FE
:101880007003A0917103B09172030196A11DB11D67
:1018900080936F0390937003A0937103B0937203CE
:1018A000BF91AF919F918F913F912F910F900FBE5C
:1018B0000F901F9018953FB7F89480916F03909107
:1018C0007003A0917103B091720326B5A89B05C067
:1018D0002F3F19F00196A11DB11D3FBFBA2FA92FAF
:1018E000982F8827820F911DA11DB11DBC01CD012C
:1018F00042E0660F771F881F991F4A95D1F7089518
:101900008F929F92AF92BF92CF92DF92EF92FF920F
:101910006B017C010E945B0C4B015C01C114D10482
:10192000E104F10401F10E94290D0E945B0CDC012D
:10193000CB0188199909AA09BB09883E9340A105E2
:10194000B10560F321E0C21AD108E108F10888EE80
:10195000880E83E0981EA11CB11CC114D104E104BF
:10196000F10419F7DBCFFF90EF90DF90CF90BF909D
:10197000AF909F908F9008958230910538F0880F36
:10198000991F880F991F05970197F1F7089578948B
:1019900084B5826084BD84B5816084BD85B5826074
:1019A00085BD85B5816085BDEEE6F0E08081816012
:1019B0008083E1E8F0E01082808182608083808112
:1019C00081608083E0E8F0E0808181608083E1EBEA
:1019D000F0E0808184608083E0EBF0E080818160D2
:1019E0008083E1E9F0E08081826080838081816092
:1019F0008083E0E9F0E0808181608083E1EAF0E0CB
:101A0000808182608083808181608083E0EAF0E071
:101A1000808181608083E1E2F1E080818260808367
:101A2000808181608083E0E2F1E080818160808359
:101A3000EAE7F0E080818460808380818260808337
:101A40008081816080838081806880831092C10062
:101A500008950895CF92DF92EF92FF920F931F9314
:101A6000CF93DF936C017A018B01C0E0D0E0CE15FB
:101A7000DF0589F0D8016D918D01D601ED91FC91C2
:101A80000190F081E02DC6011995892B11F47E019A
:101A900002C02196ECCFC701DF91CF911F910F912A
:101AA000FF90EF90DF90CF9008956115710579F068
:101AB000FB0101900020E9F73197AF01461B570B5E
:101AC000DC01ED91FC910280F381E02D199480E01E
:101AD00090E00895DC01ED91FC91DB0114964D91AD
:101AE0005C9115976D917C910280F381E02D1994A2
:101AF0000C94550D6AE772E00C94550D0F931F93EB
:101B0000CF93DF93EC010E946A0D8C01CE010E94FD
:101B10007A0D800F911FDF91CF911F910F91089542
:101B20000F931F93CF93DF93EC010E94550D8C010F
:101B3000CE010E947A0D800F911FDF91CF911F91EE
:101B40000F9108954F925F926F927F92EF92FF9262
:101B50000F931F93CF93DF93CDB7DEB7A1970FB647
:101B6000F894DEBF0FBECDBF7C01FA01CB0119A2F4
:101B7000223008F42AE08E010F5D1F4F422E512CB7
:101B8000612C712CBF01A30192010E949311F901F4
:101B9000CA01015011096A3014F4605D01C0695C2A
:101BA000D8016C93232B242B252B61F7B801C70197
:101BB0000E94550DA1960FB6F894DEBF0FBECDBFA3
:101BC000DF91CF911F910F91FF90EF907F906F90D9
:101BD0005F904F9008952115310541F4DC01ED919E
:101BE000FC910190F081E02D642F19940C94A20DCA
:101BF0000F931F93CF93DF93EC010E94EB0D8C01A9
:101C0000CE010E947A0D800F911FDF91CF911F911D
:101C10000F910895FC01918D228D892F90E0805CB9
:101C20009F4F821B91098F7399270895FC01918D15
:101C3000828D981731F0828DE80FF11D858D90E02F
:101C400008958FEF9FEF0895FC01918D828D981775
:101C500061F0828DDF01A80FB11D5D968C91928D90
:101C60009F5F9F73928F90E008958FEF9FEF08958D
:101C7000FC01538D448D252F30E0842F90E0821B92
:101C8000930B541710F0CF9608950197089584E2AE
:101C900090E1892B41F080E090E0892B21F00E94B7
:101CA0002410811125C080E090E0892B41F080E074
:101CB00090E0892B21F00E94000081111CC080E07F
:101CC00090E0892B41F080E090E0892B21F00E9488
:101CD0000000811113C080E090E0892BA1F080E02A
:101CE00090E0892B81F00E94000081110AC00895C4
:101CF0000E940000D8CF0E940000E1CF0E940000A7
:101D0000EACF0C9400000895FC01848DDF01A80F38
:101D1000B11DA35ABF4F2C91848D90E001968F7313
:101D20009927848FA689B7892C93A089B1898C9132
:101D300080648C93938D848D981306C00288F389F8
:101D4000E02D80818F7D80830895CF93DF93EC0118
:101D5000888D8823C9F0EA89FB89808185FD05C0CB
:101D6000A889B9898C9186FD0FC00FB607FCF5CF05
:101D7000808185FFF2CFA889B9898C9185FFEDCF4D
:101D8000CE010E94840EE7CFDF91CF910895EF92AC
:101D9000FF920F931F93CF93DF93EC0181E0888F25
:101DA0009B8D8C8D981305C0E889F989808185FD0C
:101DB00024C0F62E0B8D10E00F5F1F4F0F731127FD
:101DC000E02E8C8DE8120CC00FB607FCFACFE88924
:101DD000F989808185FFF5CFCE010E94840EF1CF75
:101DE0008B8DFE01E80FF11DE35AFF4FF0820B8F40
:101DF000EA89FB898081806207C0EE89FF89608360
:101E0000E889F98980818064808381E090E0DF91B6
:101E1000CF911F910F91FF90EF900895CF92DF9295
:101E2000EF92FF921F93CF93DF93EC016A017B0146
:101E3000122FE889F98982E080834115514E6105AE
:101E40007105B1F060E079E08DE390E0A7019601C3
:101E50000E949311DA01C9010197A109B109B69550
:101E6000A79597958795AC01411580E15807A8F093
:101E7000E889F989108260E874E88EE190E0A701B2
:101E800096010E949311BA01A901415051096109BB
:101E900071097695679557954795EC85FD85508333
:101EA000EE85FF854083188EEC89FD891083EA89D1
:101EB000FB89808180618083EA89FB8980818860D9
:101EC0008083EA89FB89808180688083EA89FB8935
:101ED00080818F7D8083DF91CF911F91FF90EF9064
:101EE000DF90CF9008954F925F926F927F92AF9262
:101EF000BF92CF92DF92EF92FF920F931F93CF93F7
:101F0000DF93CDB7DEB729013A019B01AC0124195B
:101F10003509460957098A899B89AC89BD89BC0165
:101F2000CD016A197B098C099D090E947711A801CE
:101F3000970124193509460957090E94B511CA01AC
:101F4000B9016A0D7B1D8C1D9D1DDF91CF911F91E5
:101F50000F91FF90EF90DF90CF90BF90AF907F9068
:101F60006F905F904F90089508950E94C70C0E9453
:101F7000B40F0E945104C7E4DEE00E9422062097BD
:101F8000E1F30E94470EF9CF1F920F920FB60F9206
:101F900011240BB60F922F938F939F93EF93FF9380
:101FA000E0918303F09184038081E0918903F091B3
:101FB0008A0382FD12C0908180918C038F5F8F73A2
:101FC00020918D03821751F0E0918C03F0E0ED58E1
:101FD000FC4F958F80938C0301C08081FF91EF911E
:101FE0009F918F912F910F900BBE0F900FBE0F906E
:101FF0001F9018951F920F920FB60F9211240BB6D7
:102000000F922F933F934F935F936F937F938F9391
:102010009F93AF93BF93EF93FF9383E793E00E9467
:10202000840EFF91EF91BF91AF919F918F917F911E
:102030006F915F914F913F912F910F900BBE0F9039
:102040000FBE0F901F90189583E793E00E940A0E31
:1020500021E0892B09F420E0822F0895E3E7F3E0E3
:102060001382128288EE93E0A0E0B0E0848395832F
:10207000A683B7838DE892E09183808385EC90E01E
:102080009587848784EC90E09787868780EC90E042
:10209000918B808B81EC90E0938B828B82EC90E033
:1020A000958B848B86EC90E0978B868B118E128EAD
:1020B000138E148E0895FC01808191810C948B12F3
:1020C000CF93DF93EC0188819981009711F00E94F2
:1020D0008B12198218821D821C821B821A82DF9148
:1020E000CF9108950F931F93CF93DF93EC018B0152
:1020F0006F5F7F4F888199810E942313009731F091
:10210000998388831B830A8381E001C080E0DF918B
:10211000CF911F910F910895CF93DF93EC018881A8
:102120009981892B29F08A819B818617970760F412
:10213000CE010E947210882341F08C819D81892BF1
:1021400019F4E881F981108281E0DF91CF9108953F
:10215000EF92FF920F931F93CF93DF93EC017B01DC
:102160008A01BA010E948C10811104C0CE010E9424
:10217000601007C01D830C83B701888199810E947C
:102180001514CE01DF91CF911F910F91FF90EF9029
:102190000895FC011182108213821282158214822A
:1021A0006115710551F0FB0101900020E9F73197AD
:1021B000AF01461B570B0C94A8100895EF92FF92A5
:1021C0000F931F93CF93DF93FC0124813581611519
:1021D000710511F480E019C041155105A9F07B018A
:1021E000EC018A01020F131FB8010E948C10882392
:1021F00089F3288139818C819D81B701820F931FDA
:102200000E9415141D830C8381E0DF91CF911F91F3
:102210000F91FF90EF9008956115710551F0FB014A
:1022200001900020E9F73197AF01461B570B0C9442
:10223000DE1080E00895EF92FF920F931F93CF93EB
:10224000DF9300D01F92CDB7DEB77C01862F4AE026
:102250008E010F5F1F4FB80190E00E941C14F8011F
:1022600001900020E9F73197AF01401B510BB801F5
:10227000C7010E94DE100F900F900F900F90DF911A
:10228000CF911F910F91FF90EF900895EF92FF92E1
:102290000F931F93CF93DF93CDB7DEB72D970FB674
:1022A000F894DEBF0FBECDBF7C01CB01BA012AE09E
:1022B0008E010F5F1F4FA8010E942714F8010190A3
:1022C0000020E9F73197AF01401B510BB801C7015E
:1022D0000E94DE102D960FB6F894DEBF0FBECDBF64
:1022E000DF91CF911F910F91FF90EF900895DB0147
:1022F0008F939F930E94DC11BF91AF91A29F800D9D
:10230000911DA39F900DB29F900D11240895991BCC
:1023100079E004C0991F961708F0961B881F7A95DC
:10232000C9F780950895A1E21A2EAA1BBB1BFD01D7
:102330000DC0AA1FBB1FEE1FFF1FA217B307E407A4
:10234000F50720F0A21BB30BE40BF50B661F771FFC
:10235000881F991F1A9469F76095709580959095DC
:102360009B01AC01BD01CF010895052E97FB1EF422
:1023700000940E94CC1157FD07D00E94931107FCD6
:1023800003D04EF40C94CC11509540953095219586
:102390003F4F4F4F5F4F0895909580957095619591
:1023A0007F4F8F4F9F4F0895EE0FFF1F881F8BBFEA
:1023B0000790F691E02D19940E94E711A59F900DCA
:1023C000B49F900DA49F800D911D11240895A29F8C
:1023D000B001B39FC001A39F700D811D1124911DF9
:1023E000B29F700D811D1124911D0895CF93DF932D
:1023F0008230910510F482E090E0E0911204F091B7
:10240000130420E030E0C0E0D0E0309711F14081CB
:10241000518148175907C0F04817590761F4828164
:102420009381209719F09B838A832BC09093130488
:102430008093120426C02115310519F04217530765
:1024400018F49A01BE01DF01EF010280F381E02D53
:10245000DCCF2115310509F1281B390B243031055A
:1024600090F412968D919C9113976115710521F04E
:10247000FB019383828304C090931304809312041E
:10248000FD01329644C0FD01E20FF31F8193919349
:10249000225031092D933C933AC020911004309181
:1024A0001104232B41F42091020230910302309356
:1024B0001104209310042091000230910102211593
:1024C000310541F42DB73EB7409104025091050209
:1024D000241B350BE0911004F0911104E217F3076F
:1024E000A0F42E1B3F0B2817390778F0AC014E5F84
:1024F0005F4F2417350748F04E0F5F1F50931104AC
:10250000409310048193919302C0E0E0F0E0CF018A
:10251000DF91CF9108950F931F93CF93DF9300978F
:1025200009F48CC0FC0132971382128200911204CC
:10253000109113040115110581F420813181820F5E
:10254000931F20911004309111042817390779F551
:10255000F0931104E093100471C0D80140E050E002
:10256000AE17BF0750F412962D913C911397AD0111
:102570002115310509F1D901F3CF9D01DA0133832A
:10258000228360817181860F971F8217930769F4F8
:10259000EC0128813981260F371F2E5F3F4F318391
:1025A00020838A819B8193838283452B29F4F09336
:1025B0001304E093120442C01396FC93EE93129717
:1025C000ED01499159919E01240F351FE217F30740
:1025D00071F480819181840F951F029611969C93CE
:1025E0008E938281938113969C938E931297E0E051
:1025F000F0E0D80112968D919C911397009719F0F5
:10260000F8018C01F6CF8D919C9198012E5F3F4F80
:10261000820F931F2091100430911104281739075D
:1026200069F4309729F4109213041092120402C036
:10263000138212821093110400931004DF91CF9142
:102640001F910F9108956F927F928F929F92AF92F8
:10265000BF92CF92DF92EF92FF920F931F93CF938F
:10266000DF93EC01009789F4CB01DF91CF911F91AB
:102670000F91FF90EF90DF90CF90BF90AF909F9021
:102680008F907F906F900C94F611FC01E60FF71F6E
:102690009C0122503109E217F30708F4ACC0D901BC
:1026A0000D911C91119706171707B0F00530110511
:1026B00008F49FC0C80104978617970708F499C0CB
:1026C00002501109061B170B019311936D937C9314
:1026D000CF010E948B128DC05B01A01AB10A4C0180
:1026E000800E911EA0911204B091130440E050E0BE
:1026F000E12CF12C109709F44AC0A815B905D1F5C1
:102700006D907C901197630182E0C80ED11CCA14B1
:10271000DB0480F1A3014A195B096A0182E0C80E5B
:10272000D11C1296BC9012971396AC91B5E0CB16C3
:10273000D10440F0B282A38351834083D9016D93C9
:102740007C930AC00E5F1F4FC301800F911FF901D8
:1027500091838083EB2DFA2FE114F10431F0D7013E
:102760001396FC93EE93129744C0F0931304E093F6
:1027700012043FC08D919C9111974817590708F496
:10278000AC017D0112960D90BC91A02DB3CF80912C
:1027900010049091110488159905E1F44617570724
:1027A000C8F48091000290910102009741F48DB726
:1027B0009EB74091040250910502841B950BE817C7
:1027C000F907C8F4F0931104E0931004F901718340
:1027D00060830FC0CB010E94F6117C01009759F075
:1027E000A801BE010E940C14CE010E948B12C701E9
:1027F00004C0CE0102C080E090E0DF91CF911F9134
:102800000F91FF90EF90DF90CF90BF90AF909F908F
:102810008F907F906F900895FB01DC0102C00190C2
:102820000D9241505040D8F70895FB01DC01019012
:102830000D920020E1F70895BB274A3031F4992327
:1028400022F4BDE2909581959F4F0C944A14BB27CA
:10285000FA01A62F6217710581059105330B30FB34
:1028600066F0AA27660F771F881F991FAA1FA21755
:1028700010F0A21B63953850A9F7A05DAA3308F0A9
:10288000A95DA19336F7B111B1931082CA010C94DE
:102890006314BB27FB015527AA27880F991FAA1F7E
:1028A000A41710F0A41B83955051B9F7A05DAA336B
:1028B00008F0A95DA193009779F7B111B193119236
:1028C000CB010C946314DC01FC01672F7191772319
:1028D000E1F7329704C07C916D9370836291AE17DB
:0A28E000BF07C8F30895F894FFCF76
:1028EA000000140480000100000043616E6E6F74E2
:1028FA0020636F6D6D756E696361746520776974A5
:10290A006820726164696F00203A3A20005261645B
:10291A00696F2000207831417869732C2000207972
:10292A0031417869730020783241786973002079DF
:10293A0032417869730020627574746F6E410020A9
:10294A00627574746F6E420020627574746F6E43A0
:10295A000020627574746F6E44000D0A006E616E19
:10296A0000696E66006F76660000000000C70E2AD6
:0C297A000D380EA50E0A0E240E160E00DD
:00000001FF
