:100000000C944E010C947F010C947F010C947F01A1
:100010000C947F010C947F010C947F010C947F0160
:100020000C947F010C947F010C947F010C947F0150
:100030000C947F010C947F010C947F010C947F0140
:100040000C947F010C947F010C947F010C947F0130
:100050000C947F010C947F010C947F010C94170782
:100060000C947F010C941F0A0C94550A0C947F0188
:100070000C947F010C947F010C947F010C947F0100
:100080000C947F010C947F010C947F010C947F01F0
:100090000C947F010C947F010C947F010C947F01E0
:1000A0000C947F010C947F010C947F010C947F01D0
:1000B0000C947F010C947F010C947F010C947F01C0
:1000C0000C947F010C947F010C947F010C947F01B0
:1000D0000C947F010C947F010C947F010C947F01A0
:1000E0000C947F0122062506140618061E065C06DF
:1000F00029062D06330637063B0641064506490606
:100100005C064F06530657060C9441060C942206D3
:100110000C9457060C9445060C94C0080C94530696
:100120000C947F0A0C94C6020C941E060C943B0699
:100130000C9437060C9433060C945C060C94490618
:100140000C94A6080C9463090C94B2080C942D0628
:100150000C9418060C94890A0C94E3080C94140669
:100160000C9441090C9430080C94D4080C94290682
:100170000C9425060C944F0600000A0B02090C0D86
:100180000E0807030401000000000000000000004A
:10019000000000000000000000000000000000005F
:1001A000000000001211100000000000000000001C
:1001B000000000000000000000000000000001023C
:1001C0001020200808102040102040800201020169
:1001D0000804020101020408102040808040201021
:1001E000080402018004020180402010080402017A
:1001F00008040201010204081020408001020408E2
:1002000010204080050505050705080808080202BA
:1002100002020A0A080804040404010101010101A0
:1002200001010303030303030303040707070C0C83
:100230000C0C0C0C0C0C020202020606060606064A
:1002400006060B0B0B0B0B0B0B0B00002000230007
:10025000260029002C002F003200000100000301BD
:100260000601090100002200250028002B002E00B5
:100270003100340002010000050108010B010000FB
:100280002100240027002A002D0030003300010146
:100290000000040107010A01C602890A11241FBED9
:1002A000CFEFD1E2DEBFCDBF00E00CBF12E0A0E097
:1002B000B2E0E6EFFCE100E00BBF02C007900D9258
:1002C000A83AB107D9F723E0A8EAB2E001C01D922D
:1002D000A238B207E1F711E0CEE4D1E000E006C0B9
:1002E00021970109802FFE010E94F40BCC34D10725
:1002F00080E00807A9F70E94100A0C94790E0C946C
:100300000000EF920F931F9326E040E052EC61E073
:1003100070E081EE92E00E94AA098BE4E82E01E0F1
:1003200010E027E048E061E08DEB92E00E94670476
:1003300094E6E92E00E010E027E048E061E08DEB74
:1003400092E00E946704811107C067E072E081EECD
:1003500092E00E949408FFCF81E08093A8021F9151
:100360000F91EF9008950F931F93CF93DF9300D0D9
:1003700000D0CDB7DEB786E30E94F206092E000C4E
:10038000AA0BBB0B8093A9029093AA02A093AB0285
:10039000B093AC0287E30E94F206092E000CAA0B70
:1003A000BB0B8093AD029093AE02A093AF02B093CB
:1003B000B0028FE30E94F206092E000CAA0BBB0BC1
:1003C0008093B1029093B202A093B302B093B402AF
:1003D00082E40E94F206092E000CAA0BBB0B80934C
:1003E000B5029093B602A093B702B093B80285E02D
:1003F0000E94C9068093B90286E00E94C9068093D4
:10040000BA0284E00E94C9068093BB0283E00E9486
:10041000C9068093BC0265E272E0CE0101960E949B
:10042000240B6091A802CE0101960E94760B63E333
:1004300072E0CE0101960E94670B4091A902509193
:10044000AA026091AB027091AC02CE0101960E94AB
:10045000A10B6CE272E0CE0101960E94670B409105
:10046000AD025091AE026091AF027091B002CE0128
:1004700001960E94A10B66E372E0CE0101960E94F4
:10048000670B4091B1025091B2026091B30270913A
:10049000B402CE0101960E94A10B6EE372E0CE0180
:1004A00001960E94670B4091B5025091B60260918F
:1004B000B7027091B802CE0101960E94A10B66E4CA
:1004C00072E0CE0101960E94670B6091B902CE01E5
:1004D00001960E94760B6EE472E0CE0101960E94B6
:1004E000670B6091BA02CE0101960E94760B67E518
:1004F00072E0CE0101960E94670B6091BB02CE01B3
:1005000001960E94760B60E672E0CE0101960E9491
:10051000670B6091BC02CE0101960E94760B69E6E2
:1005200072E0CE0101960E94670B00E010E025E129
:1005300048EA52E060E08DEB92E00E945D0588237E
:1005400019F062E772E002C06DE772E081EE92E0BE
:100550000E94940862E370E080E090E00E948607C9
:10056000BE016F5F7F4F81EE92E00E948208CE0154
:1005700001960E94B60A26960FB6F894DEBF0FBE0B
:10058000CDBFDF91CF911F910F9108958FEF9FEF16
:100590009093CE028093CD020895FC0138E0220FA3
:1005A000A681B7819C918485982309F02F5FA4814F
:1005B000B5819C91892B8C939485A281B3818C9178
:1005C00067FF02C0982B02C0909598239C93A0854A
:1005D000B1859C918585892B8C93A085B1859C9153
:1005E0008585809589238C93A481B5819C91848590
:1005F000809589238C93660F315089F6822F089558
:10060000AF92BF92CF92DF92EF92FF920F931F9320
:10061000CF93DF93EC016B01F42E122FB32E8F8555
:1006200060E08823A1F18B850E94990684EF91E018
:100630000E94C207F8946F2DCE010E94CD02A12E18
:10064000E12EFB2C8E2D8A19801770F4F701608142
:10065000CE010E94CD02C114D10411F4F7018083B0
:10066000FFEFEF1AFF0AEECF789461E08B850E94CE
:10067000990684EF91E0DF91CF911F910F91FF9048
:10068000EF90DF90CF90BF90AF900C94C2078B8516
:100690000E949906FEBC00000DB407FEFDCF8EB58A
:1006A000912FE12FFB2D8E2F891B801768F48081FD
:1006B0008EBD00000DB407FEFDCF8EB5C114D10470
:1006C00009F480833196EFCF61E08B85DF91CF9184
:1006D0001F910F91FF90EF90DF90CF90BF90AF9060
:1006E0000C9499060F936F71022F9A01462F60E0C8
:1006F00070E00E9400030F910895CF93DF931F9243
:10070000CDB7DEB721E0AE014F5F5F4F0E947203AD
:1007100089810F90DF91CF9108950F936F7160627F
:10072000022F9A01462F61E070E00E9400030F91B2
:100730000895CF93DF931F92CDB7DEB7498321E0B1
:10074000AE014F5F5F4F0E948D030F90DF91CF91FD
:100750000895DF92EF92FF920F931F93CF93DF9351
:1007600000D000D0CDB7DEB77C01D62E8A0181E063
:10077000F701868764E670E080E090E02E830E94B7
:1007800086072E81422F2E3708F04DE765E0C7011E
:100790000E9499030115110591F44EE066E0C7012E
:1007A0000E9499034FE164E0C7010E94990388E524
:1007B00092E0F701958B848B8AEF90E026C00130A0
:1007C000110591F446E066E0C7010E9499034FE1EC
:1007D00064E0C7010E94990380EB94E0F701958BD8
:1007E000848B88EE93E011C046E266E0C7010E9468
:1007F00099034FE564E0C7010E94990380E49FE1FB
:10080000F701958B848B8CED95E0938B828BAE01F9
:100810004F5F5F4F85E0FA0111928A95E9F781E019
:10082000898382E08A8383E08B8384E08C83DD820A
:1008300025E06BE0C7010E948D0343E06CE1C70136
:100840000E94990347E06DE1C7010E94990300E00F
:1008500020E030E042EE61E070E0C7010E9400035A
:1008600020E030E041EE61E070E0C7010E9400034B
:1008700067E0C7010E947D03482F406767E0C7011A
:100880000E9499034BE060E0C7010E94990361E078
:10089000F70182850E94990686E192E10E94C207D3
:1008A00060E0C7010E947D0391E08B3009F090E089
:1008B000892F26960FB6F894DEBF0FBECDBFDF910D
:1008C000CF911F910F91FF90EF90DF900895CF92FD
:1008D000DF92EF92FF920F931F93CF93DF931F92BC
:1008E000CDB7DEB76C01F62E842FF601178642874E
:1008F000238761E00E945D0661E0F60183850E9426
:100900005D0661E0F60183850E94990685E30E94F9
:10091000C9069CB59C7F9CBD9DB591609DBD89839A
:100920000E94D105F60193858981953321F0682FC6
:1009300085E30E9499062E2DA8016F2DC6010F9008
:10094000DF91CF911F910F91FF90EF90DF90CF90AB
:100950000C94A903CF92DF92EF92FF920F931F9313
:10096000CF93DF9300D01F921F92CDB7DEB77C01EB
:100970006A01862F90E0F701208931898217930759
:10098000F9F0918B808B8E010F5F1F4F85E0F8018E
:1009900011928A95E9F781E0898382E08A8383E076
:1009A0008B8384E08C836D8325E0A80160E1C7011F
:1009B0000E948D0325E0A8016AE0C7010E948D0313
:1009C00060E0C7010E947D03182F1C7F1260811711
:1009D000B9F08370833059F4F70182850E94C9060B
:1009E000019729F460E0F70182850E949906412F62
:1009F00060E0C7010E94990386E192E10E94C2076C
:100A000067E1C7010E947D03182F81FF0BC0CD282D
:100A100049F400E020E030E042EE61E070E0C70120
:100A20000E94000315FF3BC0F701168614FD34C079
:100A300061E0F70182850E9499068AE090E00E94B9
:100A4000C20760E0F70182850E949906F70182895A
:100A500093890E94C20767E0C7010E947D03182F97
:100A600085FF03C0482F40620DC084FF0FC000E027
:100A700020E030E041EE61E070E0C7010E94000339
:100A8000412F406167E0C7010E94990367E1C701F8
:100A90000E947D03182FCACF81E0F70186870F904F
:100AA0000F900F900F900F90DF91CF911F910F91AA
:100AB000FF90EF90DF90CF900895AF92BF92DF92BA
:100AC000EF92FF920F931F93CF93DF931F92CDB7B7
:100AD000DEB75C017A01D22EA8010E94AA0467E069
:100AE000C5010E947D03982F907331F0482F406319
:100AF00067E0C5010E9499030130110521F40D2D15
:100B0000970140EB03C00D2D970140EA61E070E0D2
:100B1000C5010E940003F50182859385891761F064
:100B200061E00E9499068AE090E00E94C20760E0BE
:100B3000F50182850E949906F501828993890E94B8
:100B4000C20767E0C5010E947D03182F582F50721D
:100B500085FF08C0482F406267E0C5010E949903E5
:100B600051E013C084FFE8CF00E020E030E041EE28
:100B700061E070E0C50159830E940003412F40618C
:100B800067E0C5010E9499035981852F0F90DF917D
:100B9000CF911F910F91FF90EF90DF90BF90AF909A
:100BA0000895CF93CFB7F8948091D702811127C0D1
:100BB000E9E3F2E08491E3EFF1E09491E82FF0E0D3
:100BC000EE0FFF1FE258FD4FA591B491EC91E92380
:100BD00021F461E085E30E94990661E085E30E94CB
:100BE0005D068CB580618CBD8CB580648CBD61E088
:100BF00084E30E945D0661E083E30E945D068091CC
:100C0000D7028F5F8093D702CFBFCF91089590E036
:100C1000FC013197E231F10508F04EC08827EE580B
:100C2000FF4F8F4F0C94F40B809180008F7703C09F
:100C3000809180008F7D8093800008958091800056
:100C4000877FF9CF84B58F7702C084B58F7D84BD4F
:100C500008958091B0008F7703C08091B0008F7DA0
:100C60008093B0000895809190008F7707C08091A5
:100C700090008F7D03C080919000877F80939000CB
:100C800008958091A0008F7707C08091A0008F7D8C
:100C900003C08091A000877F8093A0000895809179
:100CA00020018F7707C0809120018F7D03C0809144
:100CB0002001877F809320010895CF93DF9390E0F8
:100CC000FC01E254FE4F2491FC01EC5FFD4F849146
:100CD000882361F190E0880F991FFC01E258FD4FD5
:100CE000C591D491FC01EC59FD4FA591B4916111CE
:100CF00009C09FB7F8948881209582238883EC915E
:100D00002E230BC0623061F49FB7F8943881822F94
:100D1000809583238883EC912E2B2C939FBF06C054
:100D20008FB7F894E8812E2B28838FBFDF91CF9166
:100D300008951F93CF93DF93282F30E0F901E858EF
:100D4000FE4F8491F901E254FE4FD491F901EC5F1A
:100D5000FD4FC491CC23C9F0162F81110E940706C4
:100D6000EC2FF0E0EE0FFF1FEC59FD4FA591B49171
:100D70008FB7F894111105C09C91ED2FE095E923F0
:100D800002C0EC91ED2BEC938FBFDF91CF911F91BF
:100D90000895CF93DF93282F30E0F901E858FE4FF4
:100DA0008491F901E254FE4FD491F901EC5FFD4FBB
:100DB000C491CC2391F081110E940706EC2FF0E042
:100DC000EE0FFF1FE65BFD4FA591B491EC91ED2373
:100DD00081E090E021F480E002C080E090E0DF91CB
:100DE000CF910895863308F0865390917B00282F89
:100DF0002870977F922B90937B008770209106023A
:100E000090E4299F90011124822B80937C00809193
:100E10007A00806480937A0080917A0086FDFCCF0E
:100E2000809178002091790090E0922B08951F9294
:100E30000F920FB60F9211242F933F938F939F938E
:100E4000AF93BF938091D9029091DA02A091DB0217
:100E5000B091DC023091D80223E0230F2D3720F42B
:100E60000196A11DB11D05C026E8230F0296A11D04
:100E7000B11D2093D8028093D9029093DA02A093F7
:100E8000DB02B093DC028091DD029091DE02A09142
:100E9000DF02B091E0020196A11DB11D8093DD0239
:100EA0009093DE02A093DF02B093E002BF91AF9176
:100EB0009F918F913F912F910F900FBE0F901F9098
:100EC00018953FB7F8948091DD029091DE02A091D1
:100ED000DF02B091E00226B5A89B05C02F3F19F0B4
:100EE0000196A11DB11D3FBFBA2FA92F982F8827AA
:100EF000820F911DA11DB11DBC01CD0142E0660F05
:100F0000771F881F991F4A95D1F708958F929F9256
:100F1000AF92BF92CF92DF92EF92FF926B017C0172
:100F20000E9461074B015C01C114D104E104F1048A
:100F300001F10E942F080E946107DC01CB01881992
:100F40009909AA09BB09883E9340A105B10560F340
:100F500021E0C21AD108E108F10888EE880E83E08A
:100F6000981EA11CB11CC114D104E104F10419F7AD
:100F7000DBCFFF90EF90DF90CF90BF90AF909F902E
:100F80008F9008958230910538F0880F991F880F4F
:100F9000991F05970197F1F70895789484B58260B9
:100FA00084BD84B5816084BD85B5826085BD85B50D
:100FB000816085BDEEE6F0E0808181608083E1E8BC
:100FC000F0E01082808182608083808181608083F4
:100FD000E0E8F0E0808181608083E1EBF0E08081F7
:100FE00084608083E0EBF0E0808181608083E1E9D0
:100FF000F0E0808182608083808181608083E0E98D
:10100000F0E0808181608083E1EAF0E080818260AD
:101010008083808181608083E0EAF0E0808181606C
:101020008083E1E2F1E08081826080838081816061
:101030008083E0E2F1E0808181608083EAE7F0E094
:1010400080818460808380818260808380818160F0
:1010500080838081806880831092C1000895089504
:10106000CF92DF92EF92FF920F931F93CF93DF9374
:101070006C017A018B01C0E0D0E0CE15DF0589F06C
:10108000D8016D918D01D601ED91FC910190F08117
:10109000E02DC6011995892B11F47E0102C021961D
:1010A000ECCFC701DF91CF911F910F91FF90EF908F
:1010B000DF90CF9008956115710579F0FB010190E3
:1010C0000020E9F73197AF01461B570BDC01ED918A
:1010D000FC910280F381E02D199480E090E0089566
:1010E000DC01ED91FC91DB0114964D915C9115971B
:1010F0006D917C910280F381E02D199467E872E094
:101100000C945B080F931F93CF93DF93EC010E9425
:1011100070088C01CE010E947E08800F911FDF9124
:10112000CF911F910F9108950F931F93CF93DF934A
:10113000EC010E945B088C01CE010E947E08800FAA
:10114000911FDF91CF911F910F910895FC01918D17
:10115000228D892F90E0805C9F4F821B91098F73B5
:1011600099270895FC01918D828D981731F0828D19
:10117000E80FF11D858D90E008958FEF9FEF0895A2
:10118000FC01918D828D981761F0828DDF01A80F8F
:10119000B11D5D968C91928D9F5F9F73928F90E0B1
:1011A00008958FEF9FEF0895FC01538D448D252FF7
:1011B00030E0842F90E0821B930B541710F0CF96F1
:1011C0000895019708958FE79AE0892B41F080E018
:1011D00090E0892B21F00E947F0A811125C080E0D8
:1011E00090E0892B41F080E090E0892B21F00E9473
:1011F000000081111CC080E090E0892B41F080E06C
:1012000090E0892B21F00E940000811113C080E042
:1012100090E0892BA1F080E090E0892B81F00E9482
:10122000000081110AC008950E940000D8CF0E94DA
:101230000000E1CF0E940000EACF0C940000089566
:10124000FC01848DDF01A80FB11DA35ABF4F2C9163
:10125000848D90E001968F739927848FA689B78932
:101260002C93A089B1898C9180648C93938D848D0B
:10127000981306C00288F389E02D80818F7D8083DA
:101280000895CF93DF93EC01888D8823C9F0EA8914
:10129000FB89808185FD05C0A889B9898C9186FD6F
:1012A0000FC00FB607FCF5CF808185FFF2CFA8896C
:1012B000B9898C9185FFEDCFCE010E942009E7CF3F
:1012C000DF91CF910895EF92FF920F931F93CF93E9
:1012D000DF93EC0181E0888F9B8D8C8D981305C086
:1012E000E889F989808185FD24C0F62E0B8D10E0F8
:1012F0000F5F1F4F0F731127E02E8C8DE8120CC06B
:101300000FB607FCFACFE889F989808185FFF5CF10
:10131000CE010E942009F1CF8B8DFE01E80FF11D57
:10132000E35AFF4FF0820B8FEA89FB89808180624C
:1013300007C0EE89FF896083E889F989808180642C
:10134000808381E090E0DF91CF911F910F91FF901A
:10135000EF900895CF92DF92EF92FF921F93CF9379
:10136000DF93EC016A017B01122FE889F98982E0A1
:1013700080834115514E61057105B1F060E079E05F
:101380008DE390E0A70196010E94D20BDA01C9011A
:101390000197A109B109B695A79597958795AC01D5
:1013A000411580E15807A8F0E889F989108260E8C2
:1013B00074E88EE190E0A70196010E94D20BBA0179
:1013C000A9014150510961097109769567955795B1
:1013D0004795EC85FD855083EE85FF854083188E0B
:1013E000EC89FD891083EA89FB8980818061808393
:1013F000EA89FB89808188608083EA89FB89808112
:1014000080688083EA89FB8980818F7D8083DF917A
:10141000CF911F91FF90EF90DF90CF9008950895A6
:101420000E94CD070E940F0A0E948101C3EED8E0FE
:101430000E94B3012097E1F30E94E308F9CF1F92C5
:101440000F920FB60F9211240BB60F922F938F931A
:101450009F93EF93FF93E091F102F091F20280816C
:10146000E091F702F091F80282FD12C09081809124
:10147000FA028F5F8F732091FB02821751F0E09187
:10148000FA02F0E0EF51FD4F958F8093FA0201C010
:101490008081FF91EF919F918F912F910F900BBEC3
:1014A0000F900FBE0F901F9018951F920F920FB6BE
:1014B0000F9211240BB60F922F933F934F935F938C
:1014C0006F937F938F939F93AF93BF93EF93FF930C
:1014D00081EE92E00E942009FF91EF91BF91AF91C0
:1014E0009F918F917F916F915F914F913F912F913C
:1014F0000F900BBE0F900FBE0F901F90189581EEAE
:1015000092E00E94A60821E0892B09F420E0822FB6
:101510000895E1EEF2E01382128288EE93E0A0E0FB
:10152000B0E084839583A683B7838AE992E09183B0
:10153000808385EC90E09587848784EC90E09787A2
:10154000868780EC90E0918B808B81EC90E0938B90
:10155000828B82EC90E0958B848B86EC90E0978B6D
:10156000868B118E128E138E148E0895FC0180814D
:1015700091810C94910CCF93DF93EC018881998138
:10158000009711F00E94910C198218821D821C8212
:101590001B821A82DF91CF9108950F931F93CF93EF
:1015A000DF93EC018B016F5F7F4F888199810E94EF
:1015B000290D009731F0998388831B830A8381E08A
:1015C00001C080E0DF91CF911F910F910895CF93DB
:1015D000DF93EC0188819981892B29F08A819B8195
:1015E0008617970760F4CE010E94CD0A882341F048
:1015F0008C819D81892B19F4E881F981108281E029
:10160000DF91CF910895EF92FF920F931F93CF93A5
:10161000DF93EC017B018A01BA010E94E70A811184
:1016200004C0CE010E94BB0A07C01D830C83B70112
:10163000888199810E941B0ECE01DF91CF911F916D
:101640000F91FF90EF900895FC0111821082138298
:101650001282158214826115710551F0FB0101900F
:101660000020E9F73197AF01461B570B0C94030B91
:101670000895EF92FF920F931F93CF93DF93FC0196
:10168000248135816115710511F480E019C041157F
:101690005105A9F07B01EC018A01020F131FB8016B
:1016A0000E94E70A882389F3288139818C819D81F2
:1016B000B701820F931F0E941B0E1D830C8381E0D4
:1016C000DF91CF911F910F91FF90EF9008956115D9
:1016D000710551F0FB0101900020E9F73197AF014E
:1016E000461B570B0C94390B80E00895EF92FF9244
:1016F0000F931F93CF93DF9300D01F92CDB7DEB728
:101700007C01862F4AE08E010F5F1F4FB80190E0E9
:101710000E94220EF80101900020E9F73197AF01F5
:10172000401B510BB801C7010E94390B0F900F905D
:101730000F900F90DF91CF911F910F91FF90EF903D
:101740000895EF92FF920F931F93CF93DF93CDB73E
:10175000DEB72D970FB6F894DEBF0FBECDBF7C016C
:10176000CB01BA012AE08E010F5F1F4FA8010E9432
:101770002D0EF80101900020E9F73197AF01401BD1
:10178000510BB801C7010E94390B2D960FB6F89482
:10179000DEBF0FBECDBFDF91CF911F910F91FF90A4
:1017A000EF900895A1E21A2EAA1BBB1BFD010DC0EC
:1017B000AA1FBB1FEE1FFF1FA217B307E407F50701
:1017C00020F0A21BB30BE40BF50B661F771F881FDD
:1017D000991F1A9469F760957095809590959B0173
:1017E000AC01BD01CF010895EE0FFF1F881F8BBF15
:1017F0000790F691E02D1994CF93DF9382309105F5
:1018000010F482E090E0E0918003F091810320E009
:1018100030E0C0E0D0E0309711F1408151814817AD
:101820005907C0F04817590761F4828193812097C6
:1018300019F09B838A832BC090938103809380034C
:1018400026C02115310519F04217530718F49A01E3
:10185000BE01DF01EF010280F381E02DDCCF211515
:10186000310509F1281B390B2430310590F412960B
:101870008D919C9113976115710521F0FB01938364
:10188000828304C09093810380938003FD0132968C
:1018900044C0FD01E20FF31F81939193225031095F
:1018A0002D933C933AC020917E0330917F03232BEC
:1018B00041F4209102023091030230937F03209380
:1018C0007E0320910002309101022115310541F47F
:1018D0002DB73EB74091040250910502241B350BF1
:1018E000E0917E03F0917F03E217F307A0F42E1B33
:1018F0003F0B2817390778F0AC014E5F5F4F241774
:10190000350748F04E0F5F1F50937F0340937E03CF
:101910008193919302C0E0E0F0E0CF01DF91CF919D
:1019200008950F931F93CF93DF93009709F48CC012
:10193000FC0132971382128200918003109181037F
:101940000115110581F420813181820F931F2091AF
:101950007E0330917F032817390779F5F0937F03D1
:10196000E0937E0371C0D80140E050E0AE17BF079E
:1019700050F412962D913C911397AD01211531052C
:1019800009F1D901F3CF9D01DA013383228360810C
:101990007181860F971F8217930769F4EC012881E4
:1019A0003981260F371F2E5F3F4F318320838A8175
:1019B0009B8193838283452B29F4F0938103E093E9
:1019C000800342C01396FC93EE931297ED01499168
:1019D00059919E01240F351FE217F30771F480819E
:1019E0009181840F951F029611969C938E9382810C
:1019F000938113969C938E931297E0E0F0E0D801C8
:101A000012968D919C911397009719F0F8018C0113
:101A1000F6CF8D919C9198012E5F3F4F820F931FBF
:101A200020917E0330917F032817390769F430979E
:101A300029F4109281031092800302C01382128253
:101A400010937F0300937E03DF91CF911F910F913D
:101A500008956F927F928F929F92AF92BF92CF9292
:101A6000DF92EF92FF920F931F93CF93DF93EC01DE
:101A7000009789F4CB01DF91CF911F910F91FF90D7
:101A8000EF90DF90CF90BF90AF909F908F907F901E
:101A90006F900C94FC0BFC01E60FF71F9C01225089
:101AA0003109E217F30708F4ACC0D9010D911C917C
:101AB000119706171707B0F00530110508F49FC0FD
:101AC000C80104978617970708F499C002501109B6
:101AD000061B170B019311936D937C93CF010E940A
:101AE000910C8DC05B01A01AB10A4C01800E911EB1
:101AF000A0918003B091810340E050E0E12CF12CF3
:101B0000109709F44AC0A815B905D1F56D907C90DD
:101B10001197630182E0C80ED11CCA14DB0480F166
:101B2000A3014A195B096A0182E0C80ED11C129612
:101B3000BC9012971396AC91B5E0CB16D10440F04F
:101B4000B282A38351834083D9016D937C930AC0F1
:101B50000E5F1F4FC301800F911FF9019183808396
:101B6000EB2DFA2FE114F10431F0D7011396FC9319
:101B7000EE93129744C0F0938103E09380033FC03B
:101B80008D919C9111974817590708F4AC017D017C
:101B900012960D90BC91A02DB3CF80917E039091B1
:101BA0007F0388159905E1F446175707C8F480911B
:101BB000000290910102009741F48DB79EB74091C9
:101BC000040250910502841B950BE817F907C8F42D
:101BD000F0937F03E0937E03F901718360830FC06C
:101BE000CB010E94FC0B7C01009759F0A801BE01BB
:101BF0000E94120ECE010E94910CC70104C0CE01BA
:101C000002C080E090E0DF91CF911F910F91FF9093
:101C1000EF90DF90CF90BF90AF909F908F907F908C
:101C20006F900895FB01DC0102C001900D924150BC
:101C30005040D8F70895FB01DC0101900D9200207F
:101C4000E1F70895BB274A3031F4992322F4BDE22D
:101C5000909581959F4F0C94500EBB27FA01A62FAB
:101C60006217710581059105330B30FB66F0AA27D9
:101C7000660F771F881F991FAA1FA21710F0A21BBB
:101C800063953850A9F7A05DAA3308F0A95DA19328
:101C900036F7B111B1931082CA010C94690EBB27BB
:101CA000FB015527AA27880F991FAA1FA41710F018
:101CB000A41B83955051B9F7A05DAA3308F0A95D24
:101CC000A193009779F7B111B1931192CB010C94C4
:101CD000690EDC01FC01672F71917723E1F73297E0
:101CE00004C07C916D9370836291AE17BF07C8F3F7
:061CF0000895F894FFCFF7
:101CF6000000820380000143616E6E6F7420636F83
:101D06006D6D756E6963617465207769746820729C
:101D16006164696F00526164696F20002078314107
:101D26007869732C20002079314178697300207816
:101D360032417869730020793241786973002062F4
:101D46007574746F6E410020627574746F6E420014
:101D560020627574746F6E430020627574746F6EC2
:101D660044002E2E2E53756363657373002E2E2E3C
:101D76004661696C6564000D0A006E616E00696EED
:101D860066006F7666000000000063093008D4081C
:081D96004109A608C008B208CB
:00000001FF
